{
  "contractName": "HRM",
  "abi": [
    {
      "constant": true,
      "inputs": [],
      "name": "getName",
      "outputs": [
        {
          "internalType": "string",
          "name": "",
          "type": "string"
        }
      ],
      "payable": false,
      "stateMutability": "view",
      "type": "function"
    },
    {
      "constant": false,
      "inputs": [
        {
          "internalType": "address",
          "name": "doctorAddress",
          "type": "address"
        }
      ],
      "name": "BookAppointment",
      "outputs": [],
      "payable": false,
      "stateMutability": "nonpayable",
      "type": "function"
    },
    {
      "constant": true,
      "inputs": [],
      "name": "GetAllAppointments",
      "outputs": [
        {
          "components": [
            {
              "internalType": "uint256",
              "name": "_id",
              "type": "uint256"
            },
            {
              "components": [
                {
                  "internalType": "uint256",
                  "name": "_id",
                  "type": "uint256"
                },
                {
                  "internalType": "address",
                  "name": "_address",
                  "type": "address"
                },
                {
                  "internalType": "string",
                  "name": "_name",
                  "type": "string"
                },
                {
                  "internalType": "string",
                  "name": "_DOB",
                  "type": "string"
                },
                {
                  "internalType": "string",
                  "name": "_gender",
                  "type": "string"
                },
                {
                  "internalType": "string",
                  "name": "_email",
                  "type": "string"
                }
              ],
              "internalType": "struct HRM.Patient",
              "name": "_patient",
              "type": "tuple"
            }
          ],
          "internalType": "struct HRM.Appointment[]",
          "name": "",
          "type": "tuple[]"
        }
      ],
      "payable": false,
      "stateMutability": "view",
      "type": "function"
    },
    {
      "constant": false,
      "inputs": [
        {
          "internalType": "string",
          "name": "name",
          "type": "string"
        },
        {
          "internalType": "string",
          "name": "CID",
          "type": "string"
        }
      ],
      "name": "UploadDocument",
      "outputs": [],
      "payable": false,
      "stateMutability": "nonpayable",
      "type": "function"
    },
    {
      "constant": true,
      "inputs": [
        {
          "internalType": "address",
          "name": "patientAddress",
          "type": "address"
        }
      ],
      "name": "GetAllDocuments",
      "outputs": [
        {
          "components": [
            {
              "internalType": "string",
              "name": "_name",
              "type": "string"
            },
            {
              "internalType": "string",
              "name": "_CID",
              "type": "string"
            }
          ],
          "internalType": "struct HRM.Document[]",
          "name": "",
          "type": "tuple[]"
        }
      ],
      "payable": false,
      "stateMutability": "view",
      "type": "function"
    },
    {
      "constant": false,
      "inputs": [
        {
          "internalType": "string",
          "name": "name",
          "type": "string"
        },
        {
          "internalType": "string",
          "name": "speciality",
          "type": "string"
        },
        {
          "internalType": "string",
          "name": "email",
          "type": "string"
        }
      ],
      "name": "RegisterAsDoctor",
      "outputs": [],
      "payable": false,
      "stateMutability": "nonpayable",
      "type": "function"
    },
    {
      "constant": false,
      "inputs": [
        {
          "internalType": "string",
          "name": "name",
          "type": "string"
        },
        {
          "internalType": "string",
          "name": "DOB",
          "type": "string"
        },
        {
          "internalType": "string",
          "name": "gender",
          "type": "string"
        },
        {
          "internalType": "string",
          "name": "email",
          "type": "string"
        }
      ],
      "name": "RegisterAsPatient",
      "outputs": [],
      "payable": false,
      "stateMutability": "nonpayable",
      "type": "function"
    },
    {
      "constant": true,
      "inputs": [],
      "name": "GetAllDoctors",
      "outputs": [
        {
          "components": [
            {
              "internalType": "uint256",
              "name": "_id",
              "type": "uint256"
            },
            {
              "internalType": "address",
              "name": "_address",
              "type": "address"
            },
            {
              "internalType": "string",
              "name": "_name",
              "type": "string"
            },
            {
              "internalType": "string",
              "name": "_speciality",
              "type": "string"
            },
            {
              "internalType": "string",
              "name": "_email",
              "type": "string"
            }
          ],
          "internalType": "struct HRM.Doctor[]",
          "name": "",
          "type": "tuple[]"
        }
      ],
      "payable": false,
      "stateMutability": "view",
      "type": "function"
    }
  ],
  "bytecode": "0x600080805560015560c0604052600560808190526454454a415360d81b60a090815262000030916007919062000045565b503480156200003e57600080fd5b50620000ea565b828054600181600116156101000203166002900490600052602060002090601f016020900481019282601f106200008857805160ff1916838001178555620000b8565b82800160010185558215620000b8579182015b82811115620000b85782518255916020019190600101906200009b565b50620000c6929150620000ca565b5090565b620000e791905b80821115620000c65760008155600101620000d1565b90565b61192580620000fa6000396000f3fe608060405234801561001057600080fd5b50600436106100885760003560e01c8063c1e2a5801161005b578063c1e2a580146100e8578063cfce0827146100fb578063ede75c751461010e578063f6894bcb1461012e57610088565b806317d7de7c1461008d5780632683d769146100ab578063484073e7146100c0578063a7e1934d146100d5575b600080fd5b610095610143565b6040516100a291906117d1565b60405180910390f35b6100be6100b9366004611275565b6101da565b005b6100c86103e6565b6040516100a2919061179e565b6100be6100e33660046111e6565b610706565b6100be6100f636600461120c565b610ac3565b6100be610109366004611309565b610b41565b61012161011c3660046111e6565b610c6c565b6040516100a291906117c0565b610136610e0d565b6040516100a291906117af565b60078054604080516020601f60026000196101006001881615020190951694909404938401819004810282018101909252828152606093909290918301828280156101cf5780601f106101a4576101008083540402835291602001916101cf565b820191906000526020600020905b8154815290600101906020018083116101b257829003601f168201915b505050505090505b90565b336000908152600360205260409020600101546001600160a01b03161561021c5760405162461bcd60e51b815260040161021390611802565b60405180910390fd5b610224611039565b506040805160a081018252600080548252336020808401828152848601898152606086018990526080860188905292845260038252949092208351815593516001850180546001600160a01b0319166001600160a01b0390921691909117905551805192938493909261029e926002850192910190611071565b50606082015180516102ba916003840191602090910190611071565b50608082015180516102d6916004840191602090910190611071565b50506002805460018101808355600092909252835160059091027f405787fa12a823e0f2b7631cc41b3ba8828b3321ca811111fa75cd3aa3bb5ace81019182556020808601517f405787fa12a823e0f2b7631cc41b3ba8828b3321ca811111fa75cd3aa3bb5acf830180546001600160a01b039092166001600160a01b031990921691909117905560408601518051949550869461039b937f405787fa12a823e0f2b7631cc41b3ba8828b3321ca811111fa75cd3aa3bb5ad001929190910190611071565b50606082015180516103b7916003840191602090910190611071565b50608082015180516103d3916004840191602090910190611071565b5050600080546001019055505050505050565b336000908152600360205260409020600101546060906001600160a01b03166104215760405162461bcd60e51b8152600401610213906117f2565b33600090815260066020908152604080832080548251818502810185019093528083529193909284015b828210156106fd5760008481526020908190206040805180820182526007860290920180548352815160c0810183526001808301805483526002808501546001600160a01b03168489015260038501805487516101009582161595909502600019011691909104601f81018990048902840189018752808452969794968886019694959294860193928301828280156105255780601f106104fa57610100808354040283529160200191610525565b820191906000526020600020905b81548152906001019060200180831161050857829003601f168201915b505050918352505060038201805460408051602060026001851615610100026000190190941693909304601f81018490048402820184019092528181529382019392918301828280156105b95780601f1061058e576101008083540402835291602001916105b9565b820191906000526020600020905b81548152906001019060200180831161059c57829003601f168201915b505050918352505060048201805460408051602060026001851615610100026000190190941693909304601f810184900484028201840190925281815293820193929183018282801561064d5780601f106106225761010080835404028352916020019161064d565b820191906000526020600020905b81548152906001019060200180831161063057829003601f168201915b505050918352505060058201805460408051602060026001851615610100026000190190941693909304601f81018490048402820184019092528181529382019392918301828280156106e15780601f106106b6576101008083540402835291602001916106e1565b820191906000526020600020905b8154815290600101906020018083116106c457829003601f168201915b505050505081525050815250508152602001906001019061044b565b50505050905090565b61070e6110ef565b6040805180820182526001600160a01b038416600090815260066020529190912054819061073d576000610757565b6001600160a01b0384166000908152600660205260409020545b815233600090815260046020908152604091829020825160c081018452815481526001808301546001600160a01b0316828501526002808401805487516101009482161594909402600019011691909104601f810186900486028301860187528083529685019692959394938601939192909183018282801561081b5780601f106107f05761010080835404028352916020019161081b565b820191906000526020600020905b8154815290600101906020018083116107fe57829003601f168201915b505050918352505060038201805460408051602060026001851615610100026000190190941693909304601f81018490048402820184019092528181529382019392918301828280156108af5780601f10610884576101008083540402835291602001916108af565b820191906000526020600020905b81548152906001019060200180831161089257829003601f168201915b505050918352505060048201805460408051602060026001851615610100026000190190941693909304601f81018490048402820184019092528181529382019392918301828280156109435780601f1061091857610100808354040283529160200191610943565b820191906000526020600020905b81548152906001019060200180831161092657829003601f168201915b505050918352505060058201805460408051602060026001851615610100026000190190941693909304601f81018490048402820184019092528181529382019392918301828280156109d75780601f106109ac576101008083540402835291602001916109d7565b820191906000526020600020905b8154815290600101906020018083116109ba57829003601f168201915b5050509190925250505090526001600160a01b03838116600090815260066020908152604080832080546001808201808455928652948490208751600790920201908155868401518051958201958655808501516002830180546001600160a01b03191691909816179096559185015180519697509095879592949293610a65926003870192910190611071565b5060608201518051610a81916003840191602090910190611071565b5060808201518051610a9d916004840191602090910190611071565b5060a08201518051610ab9916005840191602090910190611071565b5050505050505050565b610acb61110e565b506040805180820182528381526020808201849052336000908152600582529283208054600181018083559185529382902083518051949592948694600290940290920192610b1f92849290910190611071565b506020828101518051610b389260018501920190611071565b50505050505050565b336000908152600460205260409020600101546001600160a01b031615610b7a5760405162461bcd60e51b8152600401610213906117e2565b610b82611128565b506040805160c0810182526001805482523360208084018281528486018a8152606086018a90526080860189905260a086018890526000938452600483529590922084518155915192820180546001600160a01b0319166001600160a01b039094169390931790925592518051929384939092610c06926002850192910190611071565b5060608201518051610c22916003840191602090910190611071565b5060808201518051610c3e916004840191602090910190611071565b5060a08201518051610c5a916005840191602090910190611071565b50506001805481019055505050505050565b6001600160a01b0381166000908152600560209081526040808320805482518185028101850190935280835260609492939192909184015b82821015610e025760008481526020908190206040805160028681029093018054600181161561010002600019011693909304601f810185900490940281016060908101835291810184815290938492849190840182828015610d485780601f10610d1d57610100808354040283529160200191610d48565b820191906000526020600020905b815481529060010190602001808311610d2b57829003601f168201915b50505050508152602001600182018054600181600116156101000203166002900480601f016020809104026020016040519081016040528092919081815260200182805460018160011615610100020316600290048015610dea5780601f10610dbf57610100808354040283529160200191610dea565b820191906000526020600020905b815481529060010190602001808311610dcd57829003601f168201915b50505050508152505081526020019060010190610ca4565b505050509050919050565b60606002805480602002602001604051908101604052809291908181526020016000905b828210156106fd5760008481526020908190206040805160a08101825260058602909201805483526001808201546001600160a01b0316848601526002808301805485516101009482161594909402600019011691909104601f8101879004870283018701855280835294959294938601939192909190830182828015610ef95780601f10610ece57610100808354040283529160200191610ef9565b820191906000526020600020905b815481529060010190602001808311610edc57829003601f168201915b505050918352505060038201805460408051602060026001851615610100026000190190941693909304601f8101849004840282018401909252818152938201939291830182828015610f8d5780601f10610f6257610100808354040283529160200191610f8d565b820191906000526020600020905b815481529060010190602001808311610f7057829003601f168201915b505050918352505060048201805460408051602060026001851615610100026000190190941693909304601f81018490048402820184019092528181529382019392918301828280156110215780601f10610ff657610100808354040283529160200191611021565b820191906000526020600020905b81548152906001019060200180831161100457829003601f168201915b50505050508152505081526020019060010190610e31565b6040518060a001604052806000815260200160006001600160a01b031681526020016060815260200160608152602001606081525090565b828054600181600116156101000203166002900490600052602060002090601f016020900481019282601f106110b257805160ff19168380011785556110df565b828001600101855582156110df579182015b828111156110df5782518255916020019190600101906110c4565b506110eb929150611167565b5090565b604051806040016040528060008152602001611109611128565b905290565b604051806040016040528060608152602001606081525090565b6040518060c001604052806000815260200160006001600160a01b03168152602001606081526020016060815260200160608152602001606081525090565b6101d791905b808211156110eb576000815560010161116d565b803561118c816118cb565b92915050565b600082601f8301126111a357600080fd5b81356111b66111b182611839565b611812565b915080825260208301602083018583830111156111d257600080fd5b6111dd838284611885565b50505092915050565b6000602082840312156111f857600080fd5b60006112048484611181565b949350505050565b6000806040838503121561121f57600080fd5b823567ffffffffffffffff81111561123657600080fd5b61124285828601611192565b925050602083013567ffffffffffffffff81111561125f57600080fd5b61126b85828601611192565b9150509250929050565b60008060006060848603121561128a57600080fd5b833567ffffffffffffffff8111156112a157600080fd5b6112ad86828701611192565b935050602084013567ffffffffffffffff8111156112ca57600080fd5b6112d686828701611192565b925050604084013567ffffffffffffffff8111156112f357600080fd5b6112ff86828701611192565b9150509250925092565b6000806000806080858703121561131f57600080fd5b843567ffffffffffffffff81111561133657600080fd5b61134287828801611192565b945050602085013567ffffffffffffffff81111561135f57600080fd5b61136b87828801611192565b935050604085013567ffffffffffffffff81111561138857600080fd5b61139487828801611192565b925050606085013567ffffffffffffffff8111156113b157600080fd5b6113bd87828801611192565b91505092959194509250565b60006113d5838361162e565b9392505050565b60006113d58383611663565b60006113d583836116d6565b6113fd81611874565b82525050565b600061140e82611867565b611418818561186b565b93508360208202850161142a85611861565b8060005b85811015611464578484038952815161144785826113c9565b945061145283611861565b60209a909a019992505060010161142e565b5091979650505050505050565b600061147c82611867565b611486818561186b565b93508360208202850161149885611861565b8060005b8581101561146457848403895281516114b585826113dc565b94506114c083611861565b60209a909a019992505060010161149c565b60006114dd82611867565b6114e7818561186b565b9350836020820285016114f985611861565b8060005b85811015611464578484038952815161151685826113e8565b945061152183611861565b60209a909a01999250506001016114fd565b600061153e82611867565b611548818561186b565b9350611558818560208601611891565b611561816118c1565b9093019392505050565b6000611578601b8361186b565b7f596f75206861766520616c726561647920726567697374657265640000000000815260200192915050565b60006115b1602f8361186b565b7f596f75206e65656420746f206265206120646f63746f7220746f20676574206181526e6c6c206170706f696e746d656e747360881b602082015260400192915050565b600061160260198361186b565b7f446f63746f7220616c7265616479207265676973746572656400000000000000815260200192915050565b805160009060408401906116428582611795565b506020830151848203602086015261165a8282611708565b95945050505050565b805160009060a08401906116778582611795565b50602083015161168a60208601826113f4565b50604083015184820360408601526116a28282611533565b915050606083015184820360608601526116bc8282611533565b9150506080830151848203608086015261165a8282611533565b80516040808452600091908401906116ee8282611533565b9150506020830151848203602086015261165a8282611533565b805160009060c084019061171c8582611795565b50602083015161172f60208601826113f4565b50604083015184820360408601526117478282611533565b915050606083015184820360608601526117618282611533565b9150506080830151848203608086015261177b8282611533565b91505060a083015184820360a086015261165a8282611533565b6113fd816101d7565b602080825281016113d58184611403565b602080825281016113d58184611471565b602080825281016113d581846114d2565b602080825281016113d58184611533565b6020808252810161118c8161156b565b6020808252810161118c816115a4565b6020808252810161118c816115f5565b60405181810167ffffffffffffffff8111828210171561183157600080fd5b604052919050565b600067ffffffffffffffff82111561185057600080fd5b506020601f91909101601f19160190565b60200190565b5190565b90815260200190565b60006001600160a01b03821661118c565b82818337506000910152565b60005b838110156118ac578181015183820152602001611894565b838111156118bb576000848401525b50505050565b601f01601f191690565b6118d481611874565b81146118df57600080fd5b5056fea365627a7a72315820e640febaa9dd6f3b6d0b0c62a994fba6b4e946e3b1f48d76570427c2cbc5d05a6c6578706572696d656e74616cf564736f6c63430005100040",
  "source": "// SPDX-License-Identifier: MIT\npragma experimental ABIEncoderV2;\n\npragma solidity <0.9.0;\ncontract HRM{\n    struct Patient\n    {\n        uint _id;\n        address _address;\n        string _name;\n        string _DOB;\n        string _gender;\n        string _email;\n    }\n\n    struct Doctor\n    {\n        uint _id;\n        address _address;\n        string _name;\n        string _speciality;\n        string _email;\n    }\n\n    struct Document{\n        string _name;\n        string _CID;\n    }\n\n    struct Appointment{\n        uint256 _id;\n        Patient _patient;\n    }\n\n    uint256 doctorCount = 0;\n    uint256 patientCount = 0;\n    Doctor[] allDoctors;\n    mapping (address => Doctor) Doctors;\n    mapping (address => Patient) Patients;\n    mapping (address => Document[]) Documents;\n    mapping (address => Appointment[]) Appointments;\n\n    string authorName = \"TEJAS\";\n\n    function getName()public view returns(string memory ) {\n        return authorName;\n    }\n    modifier isADoctor()\n    {\n        require(Doctors[msg.sender]._address!=address(0),\"You need to be a doctor to get all appointments\");\n        _;\n    }\n\n    function BookAppointment(address doctorAddress) public\n    {\n        Appointment memory newAppointment = Appointment({\n            _id: (Appointments[doctorAddress].length > 0) ? Appointments[doctorAddress].length : 0 ,\n            _patient: Patients[msg.sender]\n        });\n        Appointments[doctorAddress].push(newAppointment);\n    }\n\n    function GetAllAppointments() public isADoctor view returns (Appointment[] memory)\n    {\n        return Appointments[msg.sender];\n    }\n    function UploadDocument(string memory name,string memory CID) public {\n        Document memory newDoc = Document({\n            _name: name,\n            _CID: CID\n        }); \n        Documents[msg.sender].push(newDoc);\n    }\n\n    function GetAllDocuments(address patientAddress)public view returns (Document[] memory)\n    {\n        return Documents[patientAddress];\n    }\n\n    function RegisterAsDoctor(string memory name,string  memory speciality, string memory email) public {\n         require(Doctors[msg.sender]._address == address(0), \"Doctor already registered\");\n        Doctor memory newDoctor = Doctor({\n            _id : doctorCount,\n            _address : msg.sender,\n            _name : name,\n            _speciality: speciality,\n            _email : email\n        });\n        Doctors[msg.sender] = newDoctor;\n        allDoctors.push(newDoctor);\n        doctorCount++;\n    }\n\n    function RegisterAsPatient(string memory name, string memory DOB, string memory gender, string memory email) public \n    {\n        require(Patients[msg.sender]._address == address(0),\"You have already registered\");\n        Patient memory newPatient = Patient({\n            _id: patientCount,\n            _address: msg.sender,\n            _name: name,\n            _DOB : DOB,\n            _gender:gender,\n            _email:email\n        });\n        Patients[msg.sender] = newPatient;\n        patientCount++;\n    }\n\n    function GetAllDoctors() public view returns (Doctor[] memory)\n    {\n        return allDoctors;\n    }\n}\n\n",
  "sourcePath": "D:\\Projects\\Truffle React\\my-react-app\\contracts\\HRM.sol",
  "compiler": {
    "name": "solc",
    "version": "0.5.16+commit.9c3226ce.Emscripten.clang"
  },
  "schemaVersion": "3.4.16",
  "updatedAt": "2024-02-24T13:17:15.333Z",
  "networkType": "ethereum",
  "devdoc": {
    "methods": {}
  },
  "userdoc": {
    "methods": {}
  }
}